:020000040800F2
:1000000090040020AD010008B5010008FD090008BA
:10001000B9010008BB010008BD0100080000000094
:10002000000000000000000000000000BF01000808
:10003000C101000800000000C301000839180008D1
:10004000C7010008C7010008C7010008C701000870
:10005000C7010008C7010008C7010008C701000860
:10006000C7010008C7010008C7010008C701000850
:10007000C7010008C7010008C7010008C701000840
:10008000C7010008C7010008C70100080000000000
:10009000000000000000000000000000C701000890
:1000A000C7010008C7010008C7010008C701000810
:1000B000C7010008851C0008C7010008C701000827
:1000C000C7010008C7010008C7010008C7010008F0
:1000D000C7010008C7010008C701000800000000B0
:1000E000C7010008C7010008C701000800000000A0
:1000F000000000000000000000000000C701000830
:1001000000000000C7010008C7010008C70100087F
:1001100000000000000000000000000000000000DF
:10012000C7010008C7010008C7010008C70100088F
:10013000C7010008000000000000000000000000EF
:10014000000000000000000000000000C7010008DF
:10015000C7010008C7010008C7010008E52500081D
:10016000C7010008C70100080000000000000000EF
:10017000000000000000000000000000000000007F
:1001800000000000C701000800000000000000009F
:10019000C7010008DFF810D000F038FB0048004726
:1001A00089310008AFF300809004002006488047A2
:1001B00006480047FEE7FEE7FEE7FEE7FEE7FEE74C
:1001C000FEE7FEE7FEE7FEE78D1800089501000850
:1001D0002DE9FE4F804681EA0300C00F0C460090D7
:1001E00021F0004123F00045B8EB0200A94105D2FF
:1001F0004046214690461C460B46024623F00040EE
:10020000104347D0270DC7F30A00C3F30A510290E9
:10021000401A019040286BDAC3F3130040F4801BAE
:100220000098924620B10023D2EB030A63EB0B0B3C
:1002300001985946C0F14002504600F00AFA0646BD
:100240000D4650465946019A00F022FA10EB08007C
:100250006141002487EA115284EAE7731A4340D0CF
:10026000009A62B3019A012A4FEA075215DC001B7B
:1002700061EB02014FF0004202EA0752CDE9004271
:10028000001C41F5801132462B4600F059FA03B0AC
:10029000BDE8F08F40462146F9E7001B61EB020103
:1002A000001C41F5801300185B412018A2F50017CF
:1002B00047EB030140EAD570B6196D4111E06D08B6
:1002C0004FEA360645EAC0754FEA0752001B61EB5C
:1002D0000201001C41F5801149084FEA3000001965
:1002E000514132462B4603B0BDE8F04F00F019BA39
:1002F0000098012240000023D0EB020263EBE07380
:10030000009821464FEAE074B8EB000061EB04016D
:10031000E9E783F000435BE781F0004158E72DE90E
:10032000FE4F81EA030404F0004421F000410094F0
:100330004FF0000B23F0004350EA01045ED052EA74
:1003400003045BD0C3F30A54C1F30A552C44A4F24E
:10035000F3340194A0FB0254C1F3130141F4801162
:10036000C3F3130343F4801301FB024400FB034E69
:10037000840A970A44EA815447EA8357A4FB076832
:1003800002958D0A05FB07854FEA932C04FB0C545C
:100390002705029D4FEA065847EA1637B5EB0805D0
:1003A0006EEB070C870E920E47EA811742EA831222
:1003B000A7FB0201B6EB0B0164EB00042B0D43EA33
:1003C0000C335E1844EB1C50DA465146E7FB020141
:1003D000C5F313044FEA0B3343EA14534FEA0432D4
:1003E000019C43EA0603A4F10C040294009CCDE9AD
:1003F00000B400F0A5F903B0BDE8F08F002001467D
:10040000F9E72DE9F04D81EA030404F0004B21F0F7
:10041000004514464FF0000A23F0004150EA05025F
:1004200020D054EA01021DD0C5F30A570246C5F395
:100430001303C1F31300C1F30A5640F4801543F4CB
:100440008013A7EB0608101BD64608F2FD3873EBA5
:10045000050002D308F1010801E092185B41B8F1F0
:10046000000F03DA00200146BDE8F08D00204FF4B4
:100470008011064684460EE0171B73EB050705D373
:10048000121B63EB050306434CEA010C49084FEAD3
:10049000300092185B4150EA0107EDD152EA0300A7
:1004A00012D082EA040083EA0501084305D0101B3C
:1004B000AB4106D20122002306E000224FF00043A8
:1004C00002E06FF0010253101AEB06004CEB0851EA
:1004D00010EB0A0041EB0B01BDE8F04D00F021B933
:1004E0000EB5C10F80EAE0700844CA07002140F24F
:1004F00033438DE80E000A460B4600F021F903B0A5
:1005000000BDC1F30A5210B5C1F3130140F2FF332D
:1005100041F480119A4201DA002010BD40F23343C9
:100520009A42A2F2334203DC524200F0A1F810BD1D
:10053000904010BD00F0004230F000400AD0C10DE4
:1005400001F56071C0F3160042EA0151C20840078C
:1005500011437047002001467047000030B5041E6B
:1005600071F1000404DB4FF00044404264EB0101F0
:10057000141E73F1000405DB1C464FF00043524289
:1005800063EB0403994208BF904230BD01F0004381
:1005900030B421F0004150EA010206D00A0DA2F564
:1005A0006072C1F31301002A02DC30BC00207047E6
:1005B000440F44EAC104C100E01830BC00EBC25053
:1005C00000F078B830B50B46014600202022012407
:1005D00009E021FA02F59D4205D303FA02F5491B11
:1005E00004FA02F52844151EA2F10102F1DC30BD27
:1005F0002DE9F05F0546002092469B468846064658
:10060000814640241BE0284641464746224600F0EA
:100610002FF853465A46C01A914110D31146184636
:10062000224600F016F82D1A67EB01084F462246C5
:100630000120002100F00DF817EB00094E41201EAB
:10064000A4F10104DFDC484631462A464346BDE8B2
:10065000F09F202A04DB203A00FA02F100207047C4
:100660009140C2F1200320FA03F3194390407047F0
:10067000202A04DB203A21FA02F00021704721FAF7
:1006800002F3D040C2F1200291400843194670475E
:10069000202A06DBCB17203A41FA02F043EAE07346
:1006A00006E041FA02F3D040C2F120029140084333
:1006B000194670470029A8BF7047401C490008BF71
:1006C00020F00100704710B4B0FA80FC00FA0CF082
:1006D00050EA010404BF10BC704749B1CCF12004BA
:1006E00021FA04F411FA0CF118BF01212143084347
:1006F000A3EB0C01CB1D4FEA00614FEA102042BF73
:10070000002010BC704700EBC35010440029A4BF68
:1007100010BC7047401C490008BF20F0010010BC0D
:10072000704710B5141E73F1000408DA401C41F143
:10073000000192185B411A4301D120F0010010BD65
:100740002DE9F04D92469B4611B1B1FA81F202E0DB
:10075000B0FA80F220329046FFF77BFF04460F4646
:1007600040EA0A0041EA0B0153465A46084313D0B7
:10077000114653EA010019D0C8F140025046FFF774
:1007800077FF05460E46504659464246FFF761FF41
:10079000084305D0012004E020463946BDE8F08D2D
:1007A0000020054346EAE0762C4337430A98630568
:1007B000E40AA0EB08000022FD0A44EA47540A308C
:1007C00002D500200146E9E7010510196941DDE97C
:1007D000084500196941BDE8F04DA2E7C1F30A528E
:1007E000C1F3130140F2FF3341F480119A4202DA5F
:1007F00000200146704740F233439A42A2F233424E
:1008000002DC5242FFF734BFFFF723BF064C074D0F
:1008100006E0E06840F0010394E8070098471034D0
:10082000AC42F6D3FFF7BAFC5C3D00087C3D000803
:1008300001B504490098086000BF0248006800281C
:10084000FBD108BD1800002010B50246002404E0CA
:100850004FF47A70FFF7ECFF521E9442F8D310BDAC
:10086000F0B50A4600210023002400BF3DE0012529
:1008700005FA01F3156805EA03049C4234D10568C2
:100880004F000326BE40B543056015794E00B540C4
:100890000668354305601579012D02D01579022DC2
:1008A00016D185684F000326BE40B5438560557953
:1008B0004E00B540866835438560456801268E4008
:1008C000B5434560456896798E40B6B2354345607C
:1008D000C5684F000326BE40B543C560D5794E00BC
:1008E000B540C6683543C560491C1029BFD3F0BD6B
:1008F000F0B5002300244D07ED0E02FA05F3CE10EB
:1009000000F1200555F826504E07F70E0F26BE4081
:10091000B543CF1000F1200646F82750CE1000F165
:10092000200555F8265045EA0304CE1000F12005B5
:1009300045F82640F0BD0183704710B500F026FB56
:1009400000F028FB0221372000F09CFB00216A20E8
:1009500000F098FBC820FFF76BFF00F041F810BDD6
:1009600010B501F0EFFD10BDF8B504460D46164672
:1009700006202B4622463D210090024800F0FEF959
:10098000F8BD00000054004070B504460D462B46EB
:1009900022463C21014800F071FA70BD005400402D
:1009A0001CB50446062269460320FFF7DDFF9DF8CB
:1009B00001009DF8001040EA012000B220809DF85F
:1009C00003009DF8021040EA012000B260809DF80B
:1009D00005009DF8041040EA012000B2A0801CBD73
:1009E00010B550210020FFF7CFFFE0210120FFF7D5
:1009F000CBFF00210220FFF7C7FF10BD00BFFEE7BD
:100A000000B587B00121480500F0F6FD0121022064
:100A100000F0E2FD4FF48070059002208DF8180080
:100A200003208DF8190001208DF81A0000208DF8A0
:100A30001B00042208211948FFF75AFF05A917488F
:100A4000FFF70EFF4FF400700590042209211348B0
:100A5000FFF74EFF05A91148FFF702FF104800F00D
:100A6000B3F80020ADF808004BF6FF70ADF80A00AF
:100A7000C020ADF80C004FF48060ADF80E0000010E
:100A8000ADF81000074801900121054800F08FF8EB
:100A900001A9034800F0FEF807B000BD00040240C1
:100AA00000540040801A060000B587B00121C80537
:100AB00000F0A2FD0121052000F08EFD0422082196
:100AC0002648FFF715FF042209212548FFF710FFEC
:100AD0004FF48070059002208DF8180003208DF8E7
:100AE000190001208DF81A0000208DF81B0005A9BF
:100AF0001A48FFF7B5FE4FF40070059005A9184895
:100B0000FFF7AEFE4FF440711548FFF714FF0020C9
:100B1000ADF808004BF6FF70ADF80A007820ADF88C
:100B20000C004FF48060ADF80E000001ADF810002D
:100B30000C48019001A90C4800F0ACF801210A48CA
:100B400000F035F8042208210448FFF7D1FE042202
:100B500009210348FFF7CCFE07B000BD00000240AA
:100B600000080240801A0600005C004021B10288A3
:100B700042F48062028004E002884FF6FF331A409C
:100B80000280704770B50246002400250023002033
:100B9000958A138B1B0445EA030626F07F4404EA7A
:100BA00001068E4201D1012000E0002070BD21B17C
:100BB000028842F00102028004E002884FF6FE73D0
:100BC0001A4002807047000010B504461348844262
:100BD00009D10121480500F01FFD00214FF400104C
:100BE00000F01AFD18E00E48844209D10121880561
:100BF00000F012FD00214FF4800000F00DFD0BE02D
:100C00000848844208D10121C80500F005FD0021F3
:100C10004FF4000000F000FD10BD00000054004043
:100C200000580040005C004021B1028842F480720C
:100C3000028004E002884FF6FF631A40028070478A
:100C400021B1028842F40072028004E002884FF66B
:100C5000FF531A40028070470CB502460020002363
:100C60000193009300920B0F019321F07F41019BB0
:100C70001BB1009B1433009303E0090C009B183355
:100C80000093009B1B680B400BB1012000E000208B
:100C90000CBD00002DE9FF4704460D460026B14675
:100CA0000427DFF8CC80A6884FF6C070064068465F
:100CB00000F0D2FCDDF808802E48B8FBF0F01FFAF7
:100CC00080F946EA0906A68020884FF6FE710840A2
:100CD000208000262849286888420CD828684000CF
:100CE000B8FBF0F087B2042F00DA04273E4309F185
:100CF0000100208427E0E8884BF6FF71884206D186
:100D0000286800EB4000B8FBF0F087B209E02868E3
:100D100000EBC00101EB0010B8FBF0F087B247F424
:100D20008047C7F30B0008B947F0010747F40040BC
:100D300006434FF4967009FB00F04FF47A7190FB74
:100D4000F1F0401C2084A683208840F00100208020
:100D500026884FF6F5300640A8886989084306437F
:100D60002680A889298908432081BDE8FF870000E3
:100D700000127A0040420F00A08601002DE9F041E8
:100D80000746884616461C46069D00BF4FF40031B4
:100D90003846FFF761FF0028F8D101213846FFF7F8
:100DA00043FF00BF2C493846FFF7ECFE0028F9D07E
:100DB00000224146384600F057F800BF2749384620
:100DC000FFF7E0FE0028F9D001213846FFF7EFFEDB
:100DD0003146384600F050F800BF2049891C38469B
:100DE000FFF7D0FE0028F8D001213846FFF71CFF9E
:100DF00000BF19493846FFF7C5FE0028F9D0012287
:100E00004146384600F030F800BF1349491C3846C7
:100E1000FFF7B8FE0028F8D016E0012D07D1002119
:100E20003846FFF7A3FE01213846FFF709FF0A49BC
:100E30003F313846FFF7A6FE30B1384600F010F8D3
:100E40002070641C681E85B2002DE6D10121384651
:100E5000FFF78CFEBDE8F08101000300820007006F
:100E60000146088AC0B2704712B141F0010101E0A9
:100E700001F0FE0101827047018270472DE9F041C7
:100E800006460F4614461D4600BF4FF4003130465B
:100E9000FFF7E2FE0028F8D101213046FFF7C4FE3B
:100EA00000BF18493046FFF76DFE0028F9D0002238
:100EB00039463046FFF7D8FF00BF13493046FFF7E9
:100EC00061FE0028F9D021463046FFF7D5FF00BF6C
:100ED0000D49891C3046FFF755FE0028F8D02946F9
:100EE0003046FFF7C9FF00BF0749891C3046FFF7AE
:100EF00049FE0028F8D001213046FFF7A1FEBDE8E9
:100F0000F081000001000300820007001CB50446C8
:100F1000062269463B2000F071F89DF801009DF81B
:100F2000001040EA012000B220809DF803009DF8E7
:100F3000021040EA012000B260809DF805009DF893
:100F4000041040EA012000B2A0801CBD1CB504467C
:100F500006226946432000F051F89DF801009DF8F3
:100F6000001040EA012000B220809DF803009DF8A7
:100F7000021040EA012000B260809DF805009DF853
:100F8000041040EA012000B2A0801CBD10B5FFF79C
:100F900037FD10BD70B50024002500BF06E0002518
:100FA00000E06D1CB5F57A7FFBDB641CB4F57A7F3D
:100FB000F5DB00216B2000F065F80021382000F0FF
:100FC00061F800216A2000F05DF80021232000F084
:100FD00059F88021372000F055F80721192000F03A
:100FE00051F806211A2000F04DF801211C2000F0D4
:100FF00049F818211B2000F045F870BDF8B50446EB
:101000000D4616462B462246D02102480096FFF791
:10101000B5FEF8BD0054004030B52DED068B81B013
:101020000446022269464120FFF7E8FF9DF80100CF
:101030009DF8001040EA012005B22846FFF750FA5B
:1010400041EC1A0B9FED0B0B53EC102BFFF7D9F96A
:1010500041EC190B9FED090B53EC102BFFF7B8F87F
:1010600041EC180BFFF792FA206001B0BDEC068B43
:1010700030BD00000000000000407540A4703D0A33
:10108000D743424070B504460D462B462246D02138
:101090000148FFF7F3FE70BD0054004010B500F0AA
:1010A000BBFC10BD70B52DED028BB0EE408A04463E
:1010B0009FED160A28EE000ABDEEC00A10EE105A87
:1010C000012C06D0022C0AD0032C0ED0042C18D1EF
:1010D00011E029464FF0804001F0B0F911E02946B7
:1010E0004FF0804001F0ACF90BE029464FF0804012
:1010F00001F0A8F905E029464FF0804001F0A4F97D
:1011000000BF00BFBDEC028B70BD000000401C465C
:1011100010B54FF47A71C80601F090F94FF47A7166
:10112000C80601F08DF94FF47A71C80601F08AF90A
:101130004FF47A71C80601F087F94FF4FA60FFF7AF
:1011400077FB4FF4FA71080701F078F94FF4FA7160
:10115000080701F075F94FF4FA71080701F072F908
:101160004FF4FA71080701F06FF94FF4FA60FFF7D6
:101170005FFB10BD08B547208DF8000001208DF8F9
:1011800001008DF802008DF80300684600F002F8B7
:1011900008BD000070B5002100230F22C4781CB3E5
:1011A000174C246804F4E064C4F5E064C4F3072138
:1011B000C1F10404E3B20A4144789C40E1B284786E
:1011C000144021430C07210E0E4C0578615504781C
:1011D00004F01F050124AC4005786D11AD0005F148
:1011E000E025C5F8004109E0047804F01F0501245A
:1011F000AC40054D0678761145F8264070BD0000DC
:101200000CED00E000E400E080E100E010B500201B
:1012100000F005F810BD10B5FFF746FC10BD70B525
:101220000646002415E004F1B001C8B201F01CFB31
:10123000002001F019FB102001F016FB002504E04E
:10124000304601F01DFB681CC5B2802DF8DB601C28
:10125000C4B2082CE7DB70BD10B54FF47A70FFF70D
:10126000E7FAAE2001F000FB202001F0FDFA10208B
:1012700001F0FAFAB02001F0F7FAC82001F0F4FA10
:10128000002001F0F1FA102001F0EEFA402001F008
:10129000EBFA812001F0E8FAFF2001F0E5FAA12045
:1012A00001F0E2FAA62001F0DFFAA82001F0DCFA52
:1012B0003F2001F0D9FAA42001F0D6FAD32001F0A2
:1012C000D3FA002001F0D0FAD52001F0CDFAF020B9
:1012D00001F0CAFAD92001F0C7FA222001F0C4FABD
:1012E000DA2001F0C1FA122001F0BEFADB2001F091
:1012F000BBFA202001F0B8FA8D2001F0B5FA1420D5
:1013000001F0B2FAAF2001F0AFFA10BD10B58D2098
:1013100001F0AAFA102001F0A7FAAE2001F0A4FA19
:1013200010BD10B58D2001F09FFA142001F09CFA39
:10133000AF2001F099FA10BD70B504460D4605F1D5
:10134000B001C8B201F090FA102141EA141001F086
:101350008BFA04F00F0141F0010001F085FA70BD35
:1013600070B504460D4605F1B001C8B201F07CFA33
:10137000102141EA141001F077FA04F00F0001F097
:1013800073FA70BD2DE9F04707460E469046994620
:1013900000250024A8F12000C5B27F2F02DD002720
:1013A000B01CC6B2B9F1100F22D131463846FFF752
:1013B000D7FF002407E004EB0511174A505C01F049
:1013C0005FFA601CC4B2082CF5DB701CC1B2384651
:1013D000FFF7C6FF002408E004EB051108310E4AB0
:1013E000505C01F04DFA601CC4B2082CF4DB11E033
:1013F00031463846FFF7B4FF002409E005EB45010C
:10140000064A02EB4101085D01F03AFA601CC4B2E1
:10141000062CF3DBBDE8F0876A3700084235000888
:101420002DE9FF5F074691461E460E9D4FF0000ACC
:10143000002435E0301B401EC1B20A2002F076F8CD
:10144000B9FBF0F00A21B0FBF1F201FB1208BAF18E
:10145000000F14D1701EA04211DDB8F1000F0CD1A5
:10146000AB4605EBDB71491001FB0471C8B22B469A
:1014700020220199FFF786FF10E04FF0010AAB46EA
:1014800005EBDB71491001FB0471C8B208F13001B2
:10149000CAB22B460199FFF775FF00BF601CC4B2AA
:1014A000B442C7DBBDE8FF9F2DE9F04706468946F9
:1014B00017469A464FF0000800240025BAF1010FA4
:1014C00003D0BAF1020F5ED125E020E0785D20382C
:1014D00000F0FF087E2E04DD002609F1010000F077
:1014E000FF0949463046FFF727FF002409E008EBD3
:1014F0004801264A02EB4101085D01F0C1F9601C78
:10150000C4B2062CF3DBB01DC6B2681CC5B2785D50
:101510000028DBD137E032E0785D203800F0FF08AA
:10152000782E04DD002609F1010000F0FF0949468C
:101530003046FFF701FF002407E004EB0811144ACE
:10154000505C01F09DF9601CC4B2082CF5DB09F178
:101550000100C1B23046FFF7EFFE002408E004EBC3
:10156000081108310A4A505C01F08AF9601CC4B2C3
:10157000082CF4DB06F10800C6B2681CC5B2785D21
:101580000028C9D100BF00BFBDE8F0874235000880
:101590006A370008F8B504460D4617461E4600BFD8
:1015A00000BF00BF00BF0C2003232246314600903D
:1015B0001620FFF735FF0C2003232A463146009002
:1015C0004020FFF72DFF0C2003233A4631460090C0
:1015D0006A20FFF725FFF8BD29B1064A12680243C9
:1015E000044B1A6004E0034A12688243014B1A60FC
:1015F000704700003038024029B1064A12680243A1
:10160000044B1A6004E0034A12688243014B1A60DB
:10161000704700004038024029B1064A1268024370
:10162000044B1A6004E0034A12688243014B1A60BB
:10163000704700002038024029B1064A1268024370
:10164000044B1A6004E0034A12688243014B1A609B
:101650007047000044380240F0B500210022002409
:10166000022500260223324F3F6807F00C0121B10A
:10167000042905D0082937D105E02E4F076036E050
:101680002D4F076033E02A4F3F1F3F68C7F3805656
:10169000274F3F1F3F6807F03F036EB1264FB7FB50
:1016A000F3F7DFF88CC0ACF1040CDCF800C0CCF32D
:1016B000881C07FB0CF40CE01E4FB7FBF3F7DFF8B8
:1016C00070C0ACF1040CDCF800C0CCF3881C07FB44
:1016D0000CF4174F3F1F3F68C7F301477F1C7D0085
:1016E000B4FBF5F7076002E0124F076000BF00BFD0
:1016F0000F4F3F6807F0F0010909104F7A5C076847
:10170000D74047600A4F3F6807F4E051890A0B4F02
:101710007A5C4768D7408760054F3F6807F46041AF
:10172000490B064F7A5C4768D740C760F0BD0000A0
:10173000083802400024F40000127A000000002063
:1017400010B553214FF6FF7000F0EEF910BD000008
:101750000CB50020019000903348006840F48030C0
:101760003149086000BF3048006800F40030009044
:101770000198401C0190009818B90198B0F5A04F4D
:10178000F1D12948006800F4003010B10120009028
:1017900001E0002000900098012844D12248403008
:1017A000006840F080502049403108601F480068C0
:1017B00040F440401D4908601B48083000681A4941
:1017C000083108600846006808600846006840F470
:1017D000805008601648091F0860081F006840F024
:1017E0008070091F086000BF0F48006800F000709B
:1017F0000028F9D040F202700E4908600A4808300B
:10180000006820F0030008490831086008460068B5
:1018100040F00200086000BF03480830006800F094
:101820000C000828F8D10CBD0038024000700040C0
:1018300004154007003C024010B500F077FE00247C
:101840001DE0104850F8240030B10E4850F8240034
:10185000401E0C4941F8240000240CE00A4850F8CE
:10186000240030B1084850F82400401E064941F8D1
:101870002400601CC4B2062CF0DB601CC4B2032C34
:10188000DFDB10BD240000207800002010B51548D3
:10189000006840F47000134908601348006840F085
:1018A00001001149086000200F49083108600E4806
:1018B00000680E4908400C4908600D48091D086081
:1018C000081F006820F48020091F086000200649D6
:1018D0000C310860FFF73CFF4FF000600149803990
:1018E000086010BD88ED00E000380240FFFFF6FE02
:1018F00010300024F0B50C46154600210022068C5D
:101900004FF6FE773E400684018B028C4FF60C7634
:1019100031407E1C06EA03162E4331434FF6F5761E
:10192000324044F00106324301830284F0BDF0B539
:101930000C461546002100220026078C4FF6EF7C4E
:1019400007EA0C070784018B028C4FF6FF7707EA42
:10195000041640F6FF4739404FF6FF7707EA033792
:1019600039434FF6FF7707EA052739434FF65F778C
:101970003A4046F010073A4301830284F0BDF0B5C7
:101980000C461546002100220026078C4FF6FF6CFE
:1019900007EA0C070784818B028C4FF6FF7707EA72
:1019A00004264FF60C7739404FF6FF7707EA031706
:1019B0002F4339434FF2FF573A4046F480773A437A
:1019C00081830284F0BDF0B50C461546002100224B
:1019D0000026078C4EF6FF7C07EA0C070784818BF4
:1019E000028C4FF6FF7707EA043640F6FF4739408E
:1019F0004FF6FF7707EA052739434FF6FF7707EAE7
:101A00000337394345F6FF773A4046F480573A4367
:101A100081830284F0BD000000B58BB0012108462F
:101A2000FFF7DAFD012200213E48FEF761FF0122A7
:101A300011463C48FEF75CFF012202213948FEF7BF
:101A400057FF012203213748FEF752FF02208DF88D
:101A5000280000208DF82A008DF82B0003208DF837
:101A600029000120099009A92E48FEF7F9FE02205D
:101A7000099009A92B48FEF7F3FE0420099009A953
:101A80002848FEF7EDFE0820099009A92548FEF731
:101A9000E7FE01210846FFF7AFFD42F20F70079005
:101AA000A720ADF818000020ADF82000ADF81A000E
:101AB00006A94FF0804000F0F7FC6020ADF804006C
:101AC0000120ADF8060000200390ADF8100001A938
:101AD0004FF0804000F03AFB01A94FF0804000F049
:101AE00085FB01A94FF0804000F0ECFB01A94FF00D
:101AF000804000F04DFC0821C80600F06EFB082174
:101B0000C80600F0D2FB0821C80600F038FC082106
:101B1000C80600F086FC0121880700F0AEFA0BB081
:101B200000BD00000000024030B589B005460C46FB
:101B300001210220FFF760FD01210846FFF74CFD5F
:101B400001210220FFF748FD02208DF8200003202C
:101B50008DF8210000208DF8220002208DF823004E
:101B60004020079007A94448FEF77AFE802007909E
:101B700007A94148FEF774FE0120079007A93F48D6
:101B8000FEF76EFE0220079007A93C48FEF768FEAC
:101B9000022206213848FEF7ABFE02220721364812
:101BA000FEF7A6FE022200213448FEF7A1FE022223
:101BB00001213248FEF79CFE0595ADF8104000204B
:101BC000ADF81800ADF8120004A92D4800F06CFC27
:101BD00001212B4800F04EFA0020ADF80200012050
:101BE000ADF804000020ADF80600ADF80800ADF82F
:101BF00000006946224800F069FA0420ADF80000B0
:101C000069461F4800F062FA0820ADF800006946F6
:101C10001B4800F05BFA0C20ADF80000694618483C
:101C200000F054FA01220321154800F086FA01223F
:101C30000521134800F081FA01220921104800F023
:101C40007CFA012211210E4800F077FA01210C489C
:101C500000F013FA1D208DF80C0002208DF80D0005
:101C600000208DF80E0001208DF80F0003A8FFF76B
:101C700091FA09B030BD00000000024000040240AB
:101C80000004004070B52DED048B0221E54800F002
:101C90000CFA00287DD00024E348005D10B1012833
:101CA00013D113E00021DF4800F0E7F90021DD48FF
:101CB00000F0CCFB0221DB4800F086FA0121D94874
:101CC00000F0DBF90120D849085582E0D54800F042
:101CD000E0F9D64941F82400084650F8240044F6BB
:101CE000206190FBF1F201FB120000EE100AB8EE49
:101CF000C00A10EE105A2846FEF71CFCCC4A02EB34
:101D0000C40203C2CA4800EBC40090ED001BB0EE51
:101D1000410AF0EE610A51EC100BFEF737FC08EEB9
:101D2000100A611CC8B2B0EE480AFFF7BBF90021E7
:101D3000BC4800F049FA0020BB490855BD4800786E
:101D4000312845D1BC4850F82400C0BBB84800EB4E
:101D5000C40090ED001BB0EE410AF0EE610A53ECB6
:101D6000102B9FEDB61B51EC110BFEF7D8FA41EC8E
:101D7000180B53EC182B611CB2A000F08DFDAC4881
:101D800000EBC40090ED001BB0EE410AF0EE610ADA
:101D900000E024E053EC102B9FEDAF1B51EC110B36
:101DA000FEF7B7FA41EC190B9FEDA40B53EC102B87
:101DB000FEF7B5FA41EC180B53EC182B00E007E0E6
:101DC000A7A000F069FD4FF4FA709B4941F8240088
:101DD00000BF00BF0321934800F04CF91EE104212D
:101DE000904800F062F9002859D001248E48005D27
:101DF00010B101284DD113E000218A4800F03DF9CF
:101E00000021884800F022FB0221864800F040FAB9
:101E10000121844800F031F901208349085538E058
:101E2000804800F039F9814941F82400084650F80B
:101E3000240044F6206190FBF1F201FB120000EE59
:101E4000100AB8EEC00A10EE105A2846FEF772FBD0
:101E5000774A02EBC40203C2754800EBC40090ED60
:101E6000001BB0EE410AF0EE610A51EC100BFEF7D8
:101E70008DFB08EE100A611CC8B2B0EE480AFFF7ED
:101E800011F90021674800F003FA0020664908555F
:101E900000BF00BF0521634800F0ECF8BEE0082158
:101EA000604800F002F9002859D002245E48005D25
:101EB00010B101284DD113E000215A4800F0DDF89F
:101EC0000021584800F0C2FA0221564800F04AFAB0
:101ED0000121544800F0D1F801205349085538E059
:101EE000504800F0DCF8514941F82400084650F809
:101EF000240044F6206190FBF1F201FB120000EE99
:101F0000100AB8EEC00A10EE105A2846FEF712FB6F
:101F1000474A02EBC40203C2454800EBC40090EDFF
:101F2000001BB0EE410AF0EE610A51EC100BFEF717
:101F30002DFB08EE100A611CC8B2B0EE480AFFF78C
:101F4000B1F80021374800F00DFA00203649085555
:101F500000BF00BF0921334800F08CF85EE010217B
:101F6000304800F0A2F8002858D003242E48005D25
:101F700010B101284DD113E000212A4800F07DF86E
:101F80000021284800F062FA0221264800F03CFABD
:101F90000121244800F071F801202349085538E058
:101FA000204800F07FF8214941F82400084650F805
:101FB000240044F6206190FBF1F201FB120000EED8
:101FC000100AB8EEC00A10EE105A2846FEF7B2FA10
:101FD000174A02EBC40203C2154800EBC40090ED9F
:101FE000001BB0EE410AF0EE610A51EC100BFEF757
:101FF000CDFA08EE100A611CC8B2B0EE480AFFF72D
:1020000051F80021074800F0FFF900200649085563
:1020100000BF00BF1121034800F02CF8BDEC048B79
:1020200070BD0000000400401000002030000020BF
:10203000480000201600002078000020000000006A
:1020400000005940434825693A252E3266207065C4
:102050007263656E740A0000000000403333C33FB2
:102060004348333A252E32662070657263656E747C
:102070000A000000CA430282704721B1028842F080
:102080000102028004E002884FF6FE731A400280CB
:1020900070470146486B70470146886B70470146A0
:1020A000C86B70470146086C704730B50246002087
:1020B00000230024158A05EA0103958905EA010435
:1020C00013B10CB1012000E0002030BD70B5054611
:1020D0000C46208850B92389A28861882846FFF7DA
:1020E00009FCE188284600F0B3F925E0208804289F
:1020F0000AD12389A28861882846FFF718FCE18865
:10210000284600F0AEF917E0208808280AD1238974
:10211000A28861882846FFF732FCE188284600F053
:10212000ADF909E02389A28861882846FFF74BFCB6
:10213000E188284600F0ABF970BD1AB183890B43E2
:10214000838102E083898B438381704770B50024CB
:1021500000220023058C4FF6FE7635400584028C64
:102160008388048B4FF68F752C40B51E2C400D884C
:102170002C43751E2A408D892A434D882A43104DD1
:10218000A84202D00F4DA84213D14FF6F7752A404E
:10219000CD892A434FF6FB752A408D882A434FF696
:1021A000FF652B404FF6FF552B400D8A2B434D8A80
:1021B0002B43838004838D684563028470BD0000D7
:1021C00000000140000401400A460021018C4FF646
:1021D000FD7319401143018470470A460021018BA9
:1021E0004FF6F773194011430183704770B500240F
:1021F00000220023058C4FF6EF7635400584028CD3
:102200008388048B48F6FF752C404FF6FF452C4021
:102210000D884FF6FF7606EA05252C434FF6DF754D
:102220002A408D8906EA05152A434D8806EA0515D8
:102230002A43154DA84202D0144DA8421DD14FF695
:102240007F752A40CD894FF6FF7606EA05152A43A9
:102250004FF6BF752A408D8806EA05152A434FF6CA
:10226000FF352B404FF2FF752B400D8A06EA85059E
:102270002B434D8A06EA85052B43838004838D68B2
:102280008563028470BD000000000140000401402D
:102290000A460021018C4FF6DF7319404FF6FF7399
:1022A00003EA02131943018470470A460021018B97
:1022B0004FF2FF7319404FF6FF7303EA02231943ED
:1022C0000183704770B5002400220023058C4FF66F
:1022D000FF6635400584028C8388848B4FF68F75AA
:1022E0002C404FF6FC752C400D882C434FF6FF55C3
:1022F0002A408D894FF6FF7606EA05252A434D8848
:1023000006EA05252A43154DA84202D0144DA842DD
:102310001DD14FF2FF752A40CD894FF6FF7606EAB0
:1023200005252A434FF6FF352A408D8806EA052504
:102330002A434EF6FF752B404DF6FF752B400D8A54
:1023400006EA05152B434D8A06EA05152B438380C3
:1023500084838D68C563028470BD00000000014065
:10236000000401400A460021018C4FF6FF5319403A
:102370004FF6FF7303EA02231943018470470A46AC
:102380000021818B4FF6F773194011438183704709
:1023900070B5002200230024058C4EF6FF763540F0
:1023A0000584038C8488828B48F6FF752A404FF69B
:1023B000FF452A400D884FF6FF7606EA05252A4399
:1023C0004DF6FF752B408D8906EA05352B434D8868
:1023D00006EA05352B430A4DA84202D0094DA84212
:1023E00008D14BF6FF752C400D8A4FF6FF7606EAB2
:1023F00085152C43848082838D680564038470BDB9
:1024000000000140000401400A460021018C4DF605
:10241000FF7319404FF6FF7303EA02331943018437
:1024200070470A460021818B4FF2FF7319404FF627
:10243000FF7303EA022319438183704741637047A6
:1024400081637047C16370470164704741627047A0
:10245000028B4FF6F3731A400283028B0A43028306
:102460007047028B4FF2FF331A400283028B4FF604
:10247000FF7303EA01231A4302837047828B4FF6EE
:10248000F3731A408283828B0A4382837047828B64
:102490004FF2FF331A408283828B4FF6FF7303EAB9
:1024A00001231A438283704700220288184B984206
:1024B0000ED0184B98420BD0B0F1804F08D0164B7D
:1024C000984205D0154B984202D0154B984204D142
:1024D0004FF68F731A404B881A43124B984207D01D
:1024E000114B984204D04FF6FF431A400B891A4310
:1024F00002804B68C3620B880385054B984202D06B
:10250000044B984201D18B7A038601238382704762
:1025100000000140000401400004004000080040A9
:10252000000C004000100040001400400448006807
:1025300020B103480068401E014908607047000050
:102540001800002000B587B001210420FFF744F8EF
:1025500001212020FFF770F8082206211F48FEF70E
:10256000C7F9082207211D48FEF7C2F900208DF89F
:102570001A0001208DF81B0002208DF818008DF83C
:1025800019004020059005A91448FEF769F980203C
:10259000059005A91148FEF763F94FF41650019014
:1025A0000020ADF80800ADF80A00ADF80C00ADF859
:1025B00010000C20ADF80E0001A9094800F0E0F869
:1025C000FEF7D8FD012240F22551054800F0B3F88E
:1025D0000121034800F06CF807B000BD000802407C
:1025E0000014014010B540F22551114800F079F86F
:1025F00000281BD00E4800F02DF90E49087008463F
:102600000078302803D10CA000F046F90EE009480C
:102610000078312803D111A000F03EF906E005480A
:102620000078322802D016A000F036F910BD000064
:102630000014014016000020426C65206973207070
:1026400072696E74696E6720746865206461746174
:10265000206F66206D70753630353000426C652015
:102660006973207072696E74696E67207468652082
:1026700064617461206F66207265636976657200BB
:1026800057726F6E6720696E7075742C20706C6560
:1026900061736520656E7465722030206F72203121
:1026A0002C20776974686F75742043522F4C460054
:1026B00021B1828942F40052828104E082894DF680
:1026C000FF731A408281704702460020B1F5007FF7
:1026D00000D100BF13880B400BB1012000E00020A7
:1026E000704770B50246002400230025002040F604
:1026F0006A16B14200D100BFC1F3421501F01F03B9
:10270000012606FA03F3012D02D19689334006E033
:10271000022D02D1168A334001E0968A33400C1212
:10272000012606FA04F41688344013B10CB10120D6
:1027300000E0002070BDF0B503460024002600250F
:10274000002040F66A17B94200D100BF1846C1F315
:10275000421401F01F06012707FA06F5012C01D1EA
:102760000C3004E0022C01D1103000E014301AB11A
:1027700007682F43076002E00768AF430760F0BDBA
:102780002DE9FF4705460E460024A14600BFA0469E
:10279000B08900B100BF2C8A24F44054F08804436F
:1027A0002C82AC8941F20C608443B08831890843A3
:1027B000718908430443AC81AC8A24F44074B08925
:1027C0000443AC826846FEF747FF2048854202D0AA
:1027D0001F48854202D1DDF80C9001E0DDF8089039
:1027E000A88900F4004040B109EBC90000EB0910D2
:1027F00031684900B0FBF1F707E009EBC90000EBD5
:10280000091031688900B0FBF1F76420B7FBF0F0E4
:1028100004012009642101FB1078A88900F400401C
:1028200040B1322000EBC800B0FBF1F000F007002F
:10283000044308E0322000EB08106421B0FBF1F003
:1028400000F00F0004432C81BDE8FF870010014019
:102850000014014001468888C0F308007047C1F3A6
:10286000080282807047000010B50446234600220B
:1028700078210248FEF702FB10BD0000005C00401A
:1028800010B504462346402278210248FEF7F6FAA6
:1028900010BD0000005C00400FB4054B10B503A94B
:1028A000044A029800F0DAF810BC5DF814FB00004E
:1028B000653100082000002002E008C8121F08C18E
:1028C000002AFAD170477047002001E001C1121FB1
:1028D000002AFBD1704700002DE9FF5F82B0002184
:1028E000DDE90430020DDDF840B0034318D044F6B2
:1028F0001050A2F2FF3242431514119801281FD044
:10290000A5EB0B00401C5FEA000A4FF000064E4F9B
:10291000DFF83891B046504615D5CAF1000413E0EF
:10292000119801244AA3012801D16FEA0B010298F2
:10293000119AC0E90031C0E9024206B0BDE8F09F3B
:10294000CBF10000DFE704460021404A491842EB82
:102950000450CDE9001012E0E00707D032463B46B4
:1029600040464946FDF7DBFC8046894632463B46F9
:1029700010461946FDF7D3FC06460F466410002C9E
:10298000EAD1DDE90401DDE90023BAF1000F06DA3E
:10299000FDF7C5FC42464B46FDF7C1FC05E0FDF7DF
:1029A00030FD42464B46FDF72CFD04460E46002204
:1029B000284BFDF7D3FD03D84FF0FF30014607E069
:1029C0000022254B20463146FDF702FCFDF706FFAD
:1029D000102409E0002C0ADB0A220023FDF708FE80
:1029E000039B30321A55641E50EA0102F2D1641C76
:1029F000039AC4F111031444119A012A03D001224D
:102A000008430DD10AE0084304D000204FF0110B19
:102A1000119072E7A3EB0B056D1E0DE05B4504DD25
:102A20004FF0000205F1010504E003DA4FF0000267
:102A3000A5F10105002AECD002981199C0E90231F4
:102A4000C0E9004579E70000000014400000F03FB5
:102A5000300000000000F0430000E03F2DE9FF4F90
:102A600095B09A46884606460025EEE1252877D19E
:102A700000242746F94A0121039400E0044316F894
:102A8000013F203B01FA03F01042F7D130782A28A9
:102A900011D06FF02F033078A0F13002092A16D838
:102AA000039A44F0020402EB820203EB4202104458
:102AB000761C0390EFE758F8042B0392002A03DA00
:102AC000504244F40054039044F00204761C3078E1
:102AD0002E2816D116F8010F44F004042A280DD030
:102AE0006FF02F023078A0F13003092B09D807EBE3
:102AF000870302EB4303C718761CF3E758F8047BFF
:102B0000761C30786C280FD006DC4C2817D068284B
:102B10000DD06A2814D104E0742810D07A280FD17F
:102B20000DE044F400140AE044F4801401E044F49D
:102B300040147278824202D104F58014761C761C0F
:102B4000307866280BD013DC582877D009DC0028B1
:102B500075D04528F6D04628F4D047281AD193E1FD
:102B600018E0632835D0642879D0652812D18BE12C
:102B7000702873D008DC6728F1D069286FD06E28E0
:102B80000DD06F2806D1ACE073282CD0752874D0F6
:102B9000782853D05246179990476D1C54E1C4F3DE
:102BA0000250022809D003280DD0D8F800100428BC
:102BB0000DD00D6008F1040846E1D8F80010EA17BE
:102BC000C1E90052F6E7D8F800100D80F2E70D7069
:102BD000F0E718F8041B8DF8001000208DF80100B4
:102BE000EB46012003E058F804BB4FF0FF306107CB
:102BF0004FF0000102D40DE009F101018946B9420C
:102C00000FDA8145F8DB1BF809100029F4D108E040
:102C100009F1010189468142FADB1BF809100029FC
:102C2000F6D103985346A0EB090721463846179A78
:102C300000F080FA284400EB090507E044E008E1D1
:102C40000DE01BF8010B524617999047B9F10109A5
:102C5000F7D2534621463846179AF2E039E00A2166
:102C6000C4F302524FF0000B0091022A06D058F82C
:102C7000040BC117032A09D00AE023E008F107007A
:102C800020F00702F2E80201904605E000B2C11709
:102C9000042A01D140B2C117002906DA0A460021F0
:102CA000404261EB02012D2202E0220504D52B22D5
:102CB0008DF80420012203E0E20701D02022F7E78B
:102CC000914657E00A2100E010214FF0000B0091DF
:102CD0000BE010214FF0000B44F004040827009192
:102CE00003E008204FF0000B0090C4F30252022AC8
:102CF00005D058F8040B0021032A08D008E008F199
:102D0000070020F00702F2E80201904603E080B2DB
:102D1000042A00D1C0B24FF0000922072AD5327828
:102D2000702A07D0DDF800C08CF0100C5CEA0B0CA8
:102D300005D00EE040228DF80420012208E050EA80
:102D4000010306D030238DF804308DF805200222CF
:102D50009146009B83F0080353EA0B030AD150EA23
:102D6000010201D1620705D530228DF804204FF011
:102D700001097F1E3278582A04D039A20C920CAA7D
:102D800002920BE03BA2F9E75B46009AFDF730FCAC
:102D90000C9B9B5C029A521E0292137050EA010235
:102DA000F2D1029804A9081A00F1200B600702D59D
:102DB00024F4803400E001275F4502DDA7EB0B001F
:102DC00000E0002000EB0B01009003984944401AFA
:102DD0000390E00306D453462146179A039800F067
:102DE000A9F90544002706E001A85246C05D1799DD
:102DF00090476D1C7F1C4F45F6DBE0030CD5534616
:102E00002146179A039800F095F9054404E0302014
:102E10005246179990476D1C0099481E0090002952
:102E2000F5DC08E00298029952460078491C0291AC
:102E3000179990476D1CBBF10001ABF1010BF1DC60
:102E40005BE100F065F90544761C307800287FF4DA
:102E50000DAE19B02846BDE8F08F0000092801002A
:102E60003031323334353637383961626364656600
:102E700000000000303132333435363738394142C2
:102E80004344454600000000600700D4062708F1CF
:102E9000070020F00700F0E80223804603F0004C12
:102EA0005FEA0C0001D097A009E0200501D596A0AB
:102EB00005E0E00701D095A001E0AFF24C001390CF
:102EC000307823F0004365280CD006DC452809D073
:102ED00046281DD047287FD13BE0662818D06728B8
:102EE0007AD136E00021112F01DB112000E0781C9F
:102EF000CDE9000104A90CA8FFF7EEFCDDE90D0106
:102F00000C9A4FF0000B07F10109109200914EE06E
:102F10004FF000400097CDE9011004A90CA8FFF77D
:102F2000DBFCDDE90D020C9B0F994FF0000B914685
:102F30001093009211B9791C00EB0109B7EB09005D
:102F400003D4C0F1FF3B07F10109A9EB0700019091
:102F500042E0012F00DA01270021112F01DD1120AD
:102F600000E03846CDE9000104A90CA8FFF7B4FC45
:102F7000DDE90D010C9A00914FF0000BB94610925B
:102F800021070FD4009A4A4503DA914601E0A9F1DE
:102F90000109B9F1010F05DD109AA9F10101515C98
:102FA0003029F4D0B84202DA10F1040F03DA01211B
:102FB000CDE9011010E0002803DC8344A9EB0001F7
:102FC00002E0411C494500DD8946A0EB0B00401C96
:102FD00001904FF000400290200705D40198484529
:102FE00002DB4FF0FF30019000208DF84B0002987B
:102FF0000DF14B07B0F1004F25D002200C902B2093
:103000000D90029800280CDA404202902D200D907D
:1030100007E00A210298FDF7D5FA3031029007F84F
:10302000011D0C99481E0C900029F2DC0298002822
:10303000EFD1791E0D980870307800F0200040F034
:10304000450007F8020D11A8C01BC01D029013987F
:10305000007800B1012000EB0901019801EBE0715B
:10306000029801440398401A401E0390E00306D4DE
:1030700053462146179A039800F05CF805441398CC
:10308000007818B15246179990476D1CE00323D57C
:1030900053462146179A039800F04CF805441BE06C
:1030A000BBF1000F07DB0098584504DD1098179915
:1030B00010F80B0001E01799302052469047019814
:1030C0000BF1010B401E05F10105019004D12E20EA
:1030D0005246179990476D1CB9F10001A9F10109F9
:1030E000DEDC05E017F8010B5246179990476D1C7E
:1030F0000299481E02900029F4DC53462146179A93
:1031000003989EE62D0000002B0000002000000028
:103110002DE9F041044600251E461746880404D4D4
:1031200005E039462020B0476D1C641EF9D52846BD
:10313000BDE8F0812DE9F041044600251E46904689
:10314000C80301D5302700E02027880404D505E016
:1031500041463846B0476D1C641EF9D52846BDE887
:10316000F081000070B504460D46E1B20548FFF756
:1031700076FB00BF80210348FFF7A6FA0028F9D0AC
:10318000204670BD001401402DED028B8CB008A8C4
:10319000FEF762FAFDF7E4FBFEF73DF8FEF75CF898
:1031A000FF20FEF73CF80120FDF74EFB0020FEF764
:1031B00036F80120FDF748FB0223B2A204210020CB
:1031C000FEF772F90120FDF73FFBFEF71FF8FEF74F
:1031D0009DF80120FDF738FBFEF7A3F8FDF75EFF31
:1031E000FDF796FFFEF7ACFAFDF7A7FB49E1A9480A
:1031F000006800287DD1A84800783028FAD106A8B8
:10320000FDF784FEBDF91C30BDF91A20BDF9181078
:10321000A2A0FFF741FB04A8FDF798FEBDF914300A
:10322000BDF91220BDF91010A3A0FFF735FB03A8CC
:10323000FDF7F2FE0398FDF77DF941EC180B53EC16
:10324000182BA4A0FFF728FB01A8FDF7A9FBBDF9E7
:103250000830BDF90620BDF90410A4A0FFF71CFB3F
:10326000BDF81C309AB2BDF81A3099B2BDF81830CA
:1032700098B20123FEF78EF9BDF814309AB2BDF86A
:10328000123099B2BDF8103098B20023FEF782F9DF
:103290000C20022300909DED030ABCEEC00A10EE44
:1032A000102A07211820FEF7BBF8BDF808309AB2A3
:1032B000BDF8063099B2BDF8043098B20223FEF78B
:1032C00069F9914890ED041BB0EE410AF0EE610AF5
:1032D00053EC102B9FED8D1B51EC110BFDF71FF8DC
:1032E00041EC180BFDF70DF984B2874890ED021BF5
:1032F00000E070E0B0EE410AF0EE610A53EC102BF2
:103300009FED821B51EC110BFDF709F841EC180BF6
:10331000FDF7F7F885B27C4890ED001BB0EE410A4E
:10332000F0EE610A53EC102B9FED781B51EC110B62
:10333000FCF7F5FF41EC180BFDF7E3F886B2032329
:10334000224629463046FEF725F96F4890ED0A1BC4
:10335000B0EE410AF0EE610A53EC102B9FED6B1BAF
:1033600051EC110BFCF7DBFF41EC180BFDF7C9F832
:1033700084B2654890ED081BB0EE410AF0EE610A98
:1033800053EC102B9FED611B51EC110BFCF7C7FFA9
:1033900041EC180BFDF7B5F885B25B4890ED061BC4
:1033A000B0EE410AF0EE610A53EC102B9FED571B73
:1033B00051EC110BFCF7B3FF41EC180BFDF7A1F832
:1033C00086B20423224629463046FEF7E3F84FF43E
:1033D000FA70304908602F484068002851D12E48C3
:1033E000007831282FD100242BE0474800EBC4009F
:1033F00090ED001BB0EE410AF0EE610A9FED451B17
:1034000053EC112B51EC100BFDF7A8F818D23E48E5
:1034100000EBC40090ED001BB0EE410AF0EE610A33
:1034200053EC102B9FED391B51EC110BFCF777FF80
:1034300041EC180B53EC182B611C38A0FFF72CFA49
:10344000641C062CD1DB002415E02F4800EBC400DF
:1034500090ED001BB0EE410AF0EE610A51EC100B4A
:10346000FDF794F808EE100A611CC8B2B0EE480AE5
:10347000FDF718FE641C042CE7DB4FF4FA700549D5
:103480004860B4E648656C6C6F2047726F757020B9
:103490004400000024000020160000200A4163635D
:1034A000656C65726174696F6E3A202538642538E1
:1034B000642538640A0000004779726F73636F7087
:1034C000653A202020202538642538642538640A90
:1034D0000000000054656D70657261747572653A24
:1034E000202025382E32660A000000004D61676EEC
:1034F000657469634669656C643A25386425386487
:103500002538640A00000000480000200000000088
:10351000000059407B14AE47E17A843F4348256957
:103520003A252E3266202525200A000010B50246D5
:10353000012000E050430B1EA1F10104E1B2F9D1DA
:1035400010BD0000000000000000002F000000007F
:103550000700070000147F147F1400242A7F2A121A
:103560000062640813230036495522500000050309
:10357000000000001C224100000041221C00001439
:10358000083E08140008083E0808000000A060007B
:10359000000808080808000060600000002010080B
:1035A0000402003E5149453E0000427F4000004277
:1035B00061514946002141454B31001814127F10DA
:1035C000002745454539003C4A4949300001710909
:1035D000050300364949493600064949291E0000BD
:1035E0003636000000005636000000081422410064
:1035F0000014141414140000412214080002015194
:10360000090600324959513E007C1211127C007F9C
:1036100049494936003E41414122007F4141221C37
:10362000007F49494941007F09090901003E41499C
:10363000497A007F0808087F0000417F4100002090
:1036400040413F01007F08142241007F404040403C
:10365000007F020C027F007F0408107F003E414182
:10366000413E007F09090906003E4151215E007F6D
:10367000091929460046494949310001017F0101E4
:10368000003F4040403F001F2040201F003F403887
:10369000403F0063140814630007087008070061C6
:1036A0005149454300007F41410000552A552A55A4
:1036B000000041417F00000402010204004040403C
:1036C0004040000001020400002054545478007F60
:1036D0004844443800384444442000384444487F37
:1036E00000385454541800087E0901020018A4A49C
:1036F000A47C007F080404780000447D4000004062
:1037000080847D00007F102844000000417F40003D
:10371000007C04180478007C0804047800384444D1
:10372000443800FC242424180018242418FC007CAD
:103730000804040800485454542000043F44402026
:10374000003C4040207C001C2040201C003C4030BD
:10375000403C004428102844001CA0A0A07C004449
:1037600064544C4414141414141400000000000099
:1037700000000000000000000000000000F8000051
:103780000000000000333000000000100C06100C98
:103790000600000000000000000040C07840C07833
:1037A0004000043F04043F040400007088FC08301B
:1037B0000000001820FF211E0000F008F000E018B3
:1037C000000000211C031E211E0000F0088870006C
:1037D00000001E2123241927211010160E000000BE
:1037E00000000000000000000000000000E01804DD
:1037F0000200000000071820400000020418E0004A
:1038000000000040201807000000404080F0804089
:1038100040000202010F01020200000000F000005F
:1038200000000101011F0101010000000000000073
:10383000000080B0700000000000000000000000E8
:103840000000000101010101010100000000000071
:103850000000003030000000000000000000806028
:103860001804006018060100000000E010080810AD
:10387000E000000F102020100F00001010F80000D2
:1038800000000020203F2020000000700808088869
:103890007000003028242221300000300888884839
:1038A00030000018202020110E000000C02010F869
:1038B000000000070424243F240000F8088888083A
:1038C00008000019212020110E0000E0108888183F
:1038D0000000000F112020110E0000380808C83821
:1038E00008000000003F0000000000708808088801
:1038F0007000001C222121221C0000E0100808108A
:10390000E0000000312222110F00000000C0C000C2
:1039100000000000003030000000000000800000C7
:1039200000000000806000000000000080402010C7
:1039300008000001020408102000404040404040C0
:103940004000040404040404040000081020408023
:103950000000002010080402010000704808080858
:10396000F0000000003036010000C030C828E81028
:10397000E0000718272423140B000000C038E000E3
:103980000000203C23020227382008F8888888702D
:103990000000203F202020110E00C0300808080839
:1039A0003800071820202010080008F80808081020
:1039B000E000203F202020100F0008F88888E80849
:1039C0001000203F20202320180008F88888E808ED
:1039D0001000203F200003000000C0300808083815
:1039E000000007182020221E020008F80800000826
:1039F000F808203F210101213F20000808F80808AD
:103A000000000020203F2020000000000808F808E7
:103A10000800C08080807F00000008F888C0281857
:103A20000800203F20012638200008F80800000088
:103A30000000203F20202020300008F8F800F8F88F
:103A40000800203F003F003F200008F830C0000879
:103A5000F808203F200007183F00E0100808081071
:103A6000E0000F10202020100F0008F808080808B8
:103A7000F000203F210101010000E01008080810BB
:103A8000E0000F18242438504F0008F888888888F0
:103A90007000203F2000030C3020007088080808C8
:103AA00038000038202121221C00180808F80808D6
:103AB00018000000203F2000000008F8080000085F
:103AC000F808001F202020201F000878880000C868
:103AD0003808000007380E010000F80800F8000858
:103AE000F800033C0700073C030008186880806862
:103AF000180820302C03032C30200838C800C838A0
:103B000008000000203F2000000010080808C83806
:103B100008002038262120201800000000FE0202A4
:103B200002000000007F40404000000C30C0000058
:103B30000000000000010638C00000020202FE0082
:103B40000000004040407F0000000000040202022C
:103B50000400000000000000000000000000000061
:103B6000000080808080808080800002020400004D
:103B70000000000000000000000000008080808045
:103B800000000019242222223F2008F80080800033
:103B90000000003F112020110E00000000808080F6
:103BA0000000000E112020201100000000808088FD
:103BB000F800000E112020103F200000808080803F
:103BC0000000001F222222221300008080F088883B
:103BD00088180020203F2020000000008080808086
:103BE0008000006B94949493600008F800808080BB
:103BF0000000203F210000203F2000809898000016
:103C000000000020203F2020000000000080989845
:103C1000000000C08080807F000008F800008080E5
:103C20008000203F24022D302000000808F800000A
:103C300000000020203F20200000808080808080C5
:103C40008000203F20003F20003F80800080808057
:103C50000000203F210000203F2000008080808065
:103C60000000001F202020201F0080800080800096
:103C7000000080FFA12020110E0000000080808045
:103C80008000000E112020A0FF80808080008080B6
:103C9000800020203F2120000100000080808080E3
:103CA00080000033242424241900008080E08080D8
:103CB00000000000001F2020000080800000008025
:103CC0008000001F202020103F2080808000008086
:103CD000808000010E300806010080800080008096
:103CE00080800F300C030C300F000080800080803B
:103CF00080000020312E0E31200080808000008066
:103D0000808080818E701806010000808080808015
:103D100080000021302C2221300000000000807C37
:103D2000020200000000003F404000000000FF00D1
:103D3000000000000000FF0000000002027C800084
:103D400000000040403F00000000000601010202A8
:103D50000404000000000000000000007C3D00089A
:103D60000000002024000000B8280008A03D000842
:103D7000240000206C040000C82800080000000097
:103D80000102030401020304060708090000000001
:103D900000003200000000000000000000000000F1
:040000050800019559
:00000001FF
